{
  "_format": "hh-sol-artifact-1",
  "contractName": "RewilderNFT",
  "sourceName": "contracts/RewilderNFT.sol",
  "abi": [
    {
      "anonymous": false,
      "inputs": [
        {
          "indexed": false,
          "internalType": "address",
          "name": "previousAdmin",
          "type": "address"
        },
        {
          "indexed": false,
          "internalType": "address",
          "name": "newAdmin",
          "type": "address"
        }
      ],
      "name": "AdminChanged",
      "type": "event"
    },
    {
      "anonymous": false,
      "inputs": [
        {
          "indexed": true,
          "internalType": "address",
          "name": "owner",
          "type": "address"
        },
        {
          "indexed": true,
          "internalType": "address",
          "name": "approved",
          "type": "address"
        },
        {
          "indexed": true,
          "internalType": "uint256",
          "name": "tokenId",
          "type": "uint256"
        }
      ],
      "name": "Approval",
      "type": "event"
    },
    {
      "anonymous": false,
      "inputs": [
        {
          "indexed": true,
          "internalType": "address",
          "name": "owner",
          "type": "address"
        },
        {
          "indexed": true,
          "internalType": "address",
          "name": "operator",
          "type": "address"
        },
        {
          "indexed": false,
          "internalType": "bool",
          "name": "approved",
          "type": "bool"
        }
      ],
      "name": "ApprovalForAll",
      "type": "event"
    },
    {
      "anonymous": false,
      "inputs": [
        {
          "indexed": true,
          "internalType": "address",
          "name": "beacon",
          "type": "address"
        }
      ],
      "name": "BeaconUpgraded",
      "type": "event"
    },
    {
      "anonymous": false,
      "inputs": [
        {
          "indexed": true,
          "internalType": "address",
          "name": "previousOwner",
          "type": "address"
        },
        {
          "indexed": true,
          "internalType": "address",
          "name": "newOwner",
          "type": "address"
        }
      ],
      "name": "OwnershipTransferred",
      "type": "event"
    },
    {
      "anonymous": false,
      "inputs": [
        {
          "indexed": true,
          "internalType": "address",
          "name": "from",
          "type": "address"
        },
        {
          "indexed": true,
          "internalType": "address",
          "name": "to",
          "type": "address"
        },
        {
          "indexed": true,
          "internalType": "uint256",
          "name": "tokenId",
          "type": "uint256"
        }
      ],
      "name": "Transfer",
      "type": "event"
    },
    {
      "anonymous": false,
      "inputs": [
        {
          "indexed": true,
          "internalType": "address",
          "name": "implementation",
          "type": "address"
        }
      ],
      "name": "Upgraded",
      "type": "event"
    },
    {
      "inputs": [
        {
          "internalType": "address",
          "name": "to",
          "type": "address"
        },
        {
          "internalType": "uint256",
          "name": "tokenId",
          "type": "uint256"
        }
      ],
      "name": "approve",
      "outputs": [],
      "stateMutability": "nonpayable",
      "type": "function"
    },
    {
      "inputs": [
        {
          "internalType": "address",
          "name": "owner",
          "type": "address"
        }
      ],
      "name": "balanceOf",
      "outputs": [
        {
          "internalType": "uint256",
          "name": "",
          "type": "uint256"
        }
      ],
      "stateMutability": "view",
      "type": "function"
    },
    {
      "inputs": [
        {
          "internalType": "uint256",
          "name": "tokenId",
          "type": "uint256"
        }
      ],
      "name": "getApproved",
      "outputs": [
        {
          "internalType": "address",
          "name": "",
          "type": "address"
        }
      ],
      "stateMutability": "view",
      "type": "function"
    },
    {
      "inputs": [],
      "name": "initialize",
      "outputs": [],
      "stateMutability": "nonpayable",
      "type": "function"
    },
    {
      "inputs": [
        {
          "internalType": "address",
          "name": "owner",
          "type": "address"
        },
        {
          "internalType": "address",
          "name": "operator",
          "type": "address"
        }
      ],
      "name": "isApprovedForAll",
      "outputs": [
        {
          "internalType": "bool",
          "name": "",
          "type": "bool"
        }
      ],
      "stateMutability": "view",
      "type": "function"
    },
    {
      "inputs": [],
      "name": "name",
      "outputs": [
        {
          "internalType": "string",
          "name": "",
          "type": "string"
        }
      ],
      "stateMutability": "view",
      "type": "function"
    },
    {
      "inputs": [],
      "name": "owner",
      "outputs": [
        {
          "internalType": "address",
          "name": "",
          "type": "address"
        }
      ],
      "stateMutability": "view",
      "type": "function"
    },
    {
      "inputs": [
        {
          "internalType": "uint256",
          "name": "tokenId",
          "type": "uint256"
        }
      ],
      "name": "ownerOf",
      "outputs": [
        {
          "internalType": "address",
          "name": "",
          "type": "address"
        }
      ],
      "stateMutability": "view",
      "type": "function"
    },
    {
      "inputs": [],
      "name": "renounceOwnership",
      "outputs": [],
      "stateMutability": "nonpayable",
      "type": "function"
    },
    {
      "inputs": [
        {
          "internalType": "address",
          "name": "to",
          "type": "address"
        }
      ],
      "name": "safeMint",
      "outputs": [],
      "stateMutability": "nonpayable",
      "type": "function"
    },
    {
      "inputs": [
        {
          "internalType": "address",
          "name": "from",
          "type": "address"
        },
        {
          "internalType": "address",
          "name": "to",
          "type": "address"
        },
        {
          "internalType": "uint256",
          "name": "tokenId",
          "type": "uint256"
        }
      ],
      "name": "safeTransferFrom",
      "outputs": [],
      "stateMutability": "nonpayable",
      "type": "function"
    },
    {
      "inputs": [
        {
          "internalType": "address",
          "name": "from",
          "type": "address"
        },
        {
          "internalType": "address",
          "name": "to",
          "type": "address"
        },
        {
          "internalType": "uint256",
          "name": "tokenId",
          "type": "uint256"
        },
        {
          "internalType": "bytes",
          "name": "_data",
          "type": "bytes"
        }
      ],
      "name": "safeTransferFrom",
      "outputs": [],
      "stateMutability": "nonpayable",
      "type": "function"
    },
    {
      "inputs": [
        {
          "internalType": "address",
          "name": "operator",
          "type": "address"
        },
        {
          "internalType": "bool",
          "name": "approved",
          "type": "bool"
        }
      ],
      "name": "setApprovalForAll",
      "outputs": [],
      "stateMutability": "nonpayable",
      "type": "function"
    },
    {
      "inputs": [
        {
          "internalType": "bytes4",
          "name": "interfaceId",
          "type": "bytes4"
        }
      ],
      "name": "supportsInterface",
      "outputs": [
        {
          "internalType": "bool",
          "name": "",
          "type": "bool"
        }
      ],
      "stateMutability": "view",
      "type": "function"
    },
    {
      "inputs": [],
      "name": "symbol",
      "outputs": [
        {
          "internalType": "string",
          "name": "",
          "type": "string"
        }
      ],
      "stateMutability": "view",
      "type": "function"
    },
    {
      "inputs": [
        {
          "internalType": "uint256",
          "name": "tokenId",
          "type": "uint256"
        }
      ],
      "name": "tokenURI",
      "outputs": [
        {
          "internalType": "string",
          "name": "",
          "type": "string"
        }
      ],
      "stateMutability": "view",
      "type": "function"
    },
    {
      "inputs": [
        {
          "internalType": "address",
          "name": "from",
          "type": "address"
        },
        {
          "internalType": "address",
          "name": "to",
          "type": "address"
        },
        {
          "internalType": "uint256",
          "name": "tokenId",
          "type": "uint256"
        }
      ],
      "name": "transferFrom",
      "outputs": [],
      "stateMutability": "nonpayable",
      "type": "function"
    },
    {
      "inputs": [
        {
          "internalType": "address",
          "name": "newOwner",
          "type": "address"
        }
      ],
      "name": "transferOwnership",
      "outputs": [],
      "stateMutability": "nonpayable",
      "type": "function"
    },
    {
      "inputs": [
        {
          "internalType": "address",
          "name": "newImplementation",
          "type": "address"
        }
      ],
      "name": "upgradeTo",
      "outputs": [],
      "stateMutability": "nonpayable",
      "type": "function"
    },
    {
      "inputs": [
        {
          "internalType": "address",
          "name": "newImplementation",
          "type": "address"
        },
        {
          "internalType": "bytes",
          "name": "data",
          "type": "bytes"
        }
      ],
      "name": "upgradeToAndCall",
      "outputs": [],
      "stateMutability": "payable",
      "type": "function"
    }
  ],
  "bytecode": "0x608060405234801561001057600080fd5b50613f89806100206000396000f3fe60806040526004361061011f5760003560e01c806370a08231116100a0578063a22cb46511610064578063a22cb465146103b0578063b88d4fde146103d9578063c87b56dd14610402578063e985e9c51461043f578063f2fde38b1461047c5761011f565b806370a08231146102ef578063715018a61461032c5780638129fc1c146103435780638da5cb5b1461035a57806395d89b41146103855761011f565b80633659cfe6116100e75780633659cfe61461021b57806340d097c31461024457806342842e0e1461026d5780634f1ef286146102965780636352211e146102b25761011f565b806301ffc9a71461012457806306fdde0314610161578063081812fc1461018c578063095ea7b3146101c957806323b872dd146101f2575b600080fd5b34801561013057600080fd5b5061014b60048036038101906101469190612da9565b6104a5565b6040516101589190613283565b60405180910390f35b34801561016d57600080fd5b50610176610587565b604051610183919061329e565b60405180910390f35b34801561019857600080fd5b506101b360048036038101906101ae9190612dfb565b610619565b6040516101c0919061321c565b60405180910390f35b3480156101d557600080fd5b506101f060048036038101906101eb9190612d6d565b61069e565b005b3480156101fe57600080fd5b5061021960048036038101906102149190612c13565b6107b6565b005b34801561022757600080fd5b50610242600480360381019061023d9190612bae565b610816565b005b34801561025057600080fd5b5061026b60048036038101906102669190612bae565b61083d565b005b34801561027957600080fd5b50610294600480360381019061028f9190612c13565b6108db565b005b6102b060048036038101906102ab9190612d19565b6108fb565b005b3480156102be57600080fd5b506102d960048036038101906102d49190612dfb565b610914565b6040516102e6919061321c565b60405180910390f35b3480156102fb57600080fd5b5061031660048036038101906103119190612bae565b6109c6565b6040516103239190613540565b60405180910390f35b34801561033857600080fd5b50610341610a7e565b005b34801561034f57600080fd5b50610358610b06565b005b34801561036657600080fd5b5061036f610c63565b60405161037c919061321c565b60405180910390f35b34801561039157600080fd5b5061039a610c8d565b6040516103a7919061329e565b60405180910390f35b3480156103bc57600080fd5b506103d760048036038101906103d29190612cdd565b610d1f565b005b3480156103e557600080fd5b5061040060048036038101906103fb9190612c62565b610ea0565b005b34801561040e57600080fd5b5061042960048036038101906104249190612dfb565b610f02565b604051610436919061329e565b60405180910390f35b34801561044b57600080fd5b5061046660048036038101906104619190612bd7565b610fa9565b6040516104739190613283565b60405180910390f35b34801561048857600080fd5b506104a3600480360381019061049e9190612bae565b61103d565b005b60007f80ac58cd000000000000000000000000000000000000000000000000000000007bffffffffffffffffffffffffffffffffffffffffffffffffffffffff1916827bffffffffffffffffffffffffffffffffffffffffffffffffffffffff1916148061057057507f5b5e139f000000000000000000000000000000000000000000000000000000007bffffffffffffffffffffffffffffffffffffffffffffffffffffffff1916827bffffffffffffffffffffffffffffffffffffffffffffffffffffffff1916145b80610580575061057f82611135565b5b9050919050565b60606065805461059690613770565b80601f01602080910402602001604051908101604052809291908181526020018280546105c290613770565b801561060f5780601f106105e45761010080835404028352916020019161060f565b820191906000526020600020905b8154815290600101906020018083116105f257829003601f168201915b5050505050905090565b60006106248261119f565b610663576040517f08c379a000000000000000000000000000000000000000000000000000000000815260040161065a90613440565b60405180910390fd5b6069600083815260200190815260200160002060009054906101000a900473ffffffffffffffffffffffffffffffffffffffff169050919050565b60006106a982610914565b90508073ffffffffffffffffffffffffffffffffffffffff168373ffffffffffffffffffffffffffffffffffffffff16141561071a576040517f08c379a0000000000000000000000000000000000000000000000000000000008152600401610711906134e0565b60405180910390fd5b8073ffffffffffffffffffffffffffffffffffffffff1661073961120b565b73ffffffffffffffffffffffffffffffffffffffff16148061076857506107678161076261120b565b610fa9565b5b6107a7576040517f08c379a000000000000000000000000000000000000000000000000000000000815260040161079e906133a0565b60405180910390fd5b6107b18383611213565b505050565b6107c76107c161120b565b826112cc565b610806576040517f08c379a00000000000000000000000000000000000000000000000000000000081526004016107fd90613520565b60405180910390fd5b6108118383836113aa565b505050565b61081f81611606565b61083a81604051806020016040528060008152506000611685565b50565b61084561120b565b73ffffffffffffffffffffffffffffffffffffffff16610863610c63565b73ffffffffffffffffffffffffffffffffffffffff16146108b9576040517f08c379a00000000000000000000000000000000000000000000000000000000081526004016108b090613480565b60405180910390fd5b6108cd816108c861012d611856565b611864565b6108d861012d611882565b50565b6108f683838360405180602001604052806000815250610ea0565b505050565b61090482611606565b61091082826001611685565b5050565b6000806067600084815260200190815260200160002060009054906101000a900473ffffffffffffffffffffffffffffffffffffffff169050600073ffffffffffffffffffffffffffffffffffffffff168173ffffffffffffffffffffffffffffffffffffffff1614156109bd576040517f08c379a00000000000000000000000000000000000000000000000000000000081526004016109b4906133e0565b60405180910390fd5b80915050919050565b60008073ffffffffffffffffffffffffffffffffffffffff168273ffffffffffffffffffffffffffffffffffffffff161415610a37576040517f08c379a0000000000000000000000000000000000000000000000000000000008152600401610a2e906133c0565b60405180910390fd5b606860008373ffffffffffffffffffffffffffffffffffffffff1673ffffffffffffffffffffffffffffffffffffffff168152602001908152602001600020549050919050565b610a8661120b565b73ffffffffffffffffffffffffffffffffffffffff16610aa4610c63565b73ffffffffffffffffffffffffffffffffffffffff1614610afa576040517f08c379a0000000000000000000000000000000000000000000000000000000008152600401610af190613480565b60405180910390fd5b610b046000611898565b565b600060019054906101000a900460ff1680610b2c575060008054906101000a900460ff16155b610b6b576040517f08c379a0000000000000000000000000000000000000000000000000000000008152600401610b6290613400565b60405180910390fd5b60008060019054906101000a900460ff161590508015610bbb576001600060016101000a81548160ff02191690831515021790555060016000806101000a81548160ff0219169083151502179055505b610c2f6040518060400160405280600b81526020017f526577696c6465724e46540000000000000000000000000000000000000000008152506040518060400160405280600481526020017f57494c440000000000000000000000000000000000000000000000000000000081525061195e565b610c37611a53565b610c3f611b3c565b8015610c605760008060016101000a81548160ff0219169083151502179055505b50565b6000609760009054906101000a900473ffffffffffffffffffffffffffffffffffffffff16905090565b606060668054610c9c90613770565b80601f0160208091040260200160405190810160405280929190818152602001828054610cc890613770565b8015610d155780601f10610cea57610100808354040283529160200191610d15565b820191906000526020600020905b815481529060010190602001808311610cf857829003601f168201915b5050505050905090565b610d2761120b565b73ffffffffffffffffffffffffffffffffffffffff168273ffffffffffffffffffffffffffffffffffffffff161415610d95576040517f08c379a0000000000000000000000000000000000000000000000000000000008152600401610d8c90613360565b60405180910390fd5b80606a6000610da261120b565b73ffffffffffffffffffffffffffffffffffffffff1673ffffffffffffffffffffffffffffffffffffffff16815260200190815260200160002060008473ffffffffffffffffffffffffffffffffffffffff1673ffffffffffffffffffffffffffffffffffffffff16815260200190815260200160002060006101000a81548160ff0219169083151502179055508173ffffffffffffffffffffffffffffffffffffffff16610e4f61120b565b73ffffffffffffffffffffffffffffffffffffffff167f17307eab39ab6107e8899845ad3d59bd9653f200f220920489ca2b5937696c3183604051610e949190613283565b60405180910390a35050565b610eb1610eab61120b565b836112cc565b610ef0576040517f08c379a0000000000000000000000000000000000000000000000000000000008152600401610ee790613520565b60405180910390fd5b610efc84848484611c25565b50505050565b6060610f0d8261119f565b610f4c576040517f08c379a0000000000000000000000000000000000000000000000000000000008152600401610f43906134c0565b60405180910390fd5b6000610f56611c81565b90506000815111610f765760405180602001604052806000815250610fa1565b80610f8084611ca1565b604051602001610f919291906131f8565b6040516020818303038152906040525b915050919050565b6000606a60008473ffffffffffffffffffffffffffffffffffffffff1673ffffffffffffffffffffffffffffffffffffffff16815260200190815260200160002060008373ffffffffffffffffffffffffffffffffffffffff1673ffffffffffffffffffffffffffffffffffffffff16815260200190815260200160002060009054906101000a900460ff16905092915050565b61104561120b565b73ffffffffffffffffffffffffffffffffffffffff16611063610c63565b73ffffffffffffffffffffffffffffffffffffffff16146110b9576040517f08c379a00000000000000000000000000000000000000000000000000000000081526004016110b090613480565b60405180910390fd5b600073ffffffffffffffffffffffffffffffffffffffff168173ffffffffffffffffffffffffffffffffffffffff161415611129576040517f08c379a000000000000000000000000000000000000000000000000000000000815260040161112090613300565b60405180910390fd5b61113281611898565b50565b60007f01ffc9a7000000000000000000000000000000000000000000000000000000007bffffffffffffffffffffffffffffffffffffffffffffffffffffffff1916827bffffffffffffffffffffffffffffffffffffffffffffffffffffffff1916149050919050565b60008073ffffffffffffffffffffffffffffffffffffffff166067600084815260200190815260200160002060009054906101000a900473ffffffffffffffffffffffffffffffffffffffff1673ffffffffffffffffffffffffffffffffffffffff1614159050919050565b600033905090565b816069600083815260200190815260200160002060006101000a81548173ffffffffffffffffffffffffffffffffffffffff021916908373ffffffffffffffffffffffffffffffffffffffff160217905550808273ffffffffffffffffffffffffffffffffffffffff1661128683610914565b73ffffffffffffffffffffffffffffffffffffffff167f8c5be1e5ebec7d5bd14f71427d1e84f3dd0314c0f7b2291e5b200ac8c7c3b92560405160405180910390a45050565b60006112d78261119f565b611316576040517f08c379a000000000000000000000000000000000000000000000000000000000815260040161130d90613380565b60405180910390fd5b600061132183610914565b90508073ffffffffffffffffffffffffffffffffffffffff168473ffffffffffffffffffffffffffffffffffffffff16148061139057508373ffffffffffffffffffffffffffffffffffffffff1661137884610619565b73ffffffffffffffffffffffffffffffffffffffff16145b806113a157506113a08185610fa9565b5b91505092915050565b8273ffffffffffffffffffffffffffffffffffffffff166113ca82610914565b73ffffffffffffffffffffffffffffffffffffffff1614611420576040517f08c379a0000000000000000000000000000000000000000000000000000000008152600401611417906134a0565b60405180910390fd5b600073ffffffffffffffffffffffffffffffffffffffff168273ffffffffffffffffffffffffffffffffffffffff161415611490576040517f08c379a000000000000000000000000000000000000000000000000000000000815260040161148790613340565b60405180910390fd5b61149b838383611e4e565b6114a6600082611213565b6001606860008573ffffffffffffffffffffffffffffffffffffffff1673ffffffffffffffffffffffffffffffffffffffff16815260200190815260200160002060008282546114f69190613686565b925050819055506001606860008473ffffffffffffffffffffffffffffffffffffffff1673ffffffffffffffffffffffffffffffffffffffff168152602001908152602001600020600082825461154d91906135ff565b92505081905550816067600083815260200190815260200160002060006101000a81548173ffffffffffffffffffffffffffffffffffffffff021916908373ffffffffffffffffffffffffffffffffffffffff160217905550808273ffffffffffffffffffffffffffffffffffffffff168473ffffffffffffffffffffffffffffffffffffffff167fddf252ad1be2c89b69c2b068fc378daa952ba7f163c4a11628f55a4df523b3ef60405160405180910390a4505050565b61160e61120b565b73ffffffffffffffffffffffffffffffffffffffff1661162c610c63565b73ffffffffffffffffffffffffffffffffffffffff1614611682576040517f08c379a000000000000000000000000000000000000000000000000000000000815260040161167990613480565b60405180910390fd5b50565b600061168f611e53565b905061169a84611eaa565b6000835111806116a75750815b156116b8576116b68484611f63565b505b60006116e67f4910fdfa16fed3260ed0e7147f7cc6da11a60208b5b9406d12a635614ffd914360001b612047565b90508060000160009054906101000a900460ff1661184f5760018160000160006101000a81548160ff0219169083151502179055506117b28583604051602401611730919061321c565b6040516020818303038152906040527f3659cfe6000000000000000000000000000000000000000000000000000000007bffffffffffffffffffffffffffffffffffffffffffffffffffffffff19166020820180517bffffffffffffffffffffffffffffffffffffffffffffffffffffffff8381831617835250505050611f63565b5060008160000160006101000a81548160ff0219169083151502179055506117d8611e53565b73ffffffffffffffffffffffffffffffffffffffff168273ffffffffffffffffffffffffffffffffffffffff1614611845576040517f08c379a000000000000000000000000000000000000000000000000000000000815260040161183c906132e0565b60405180910390fd5b61184e85612051565b5b5050505050565b600081600001549050919050565b61187e8282604051806020016040528060008152506120a0565b5050565b6001816000016000828254019250508190555050565b6000609760009054906101000a900473ffffffffffffffffffffffffffffffffffffffff16905081609760006101000a81548173ffffffffffffffffffffffffffffffffffffffff021916908373ffffffffffffffffffffffffffffffffffffffff1602179055508173ffffffffffffffffffffffffffffffffffffffff168173ffffffffffffffffffffffffffffffffffffffff167f8be0079c531659141344cd1fd0a4f28419497f9722a3daafe3b4186f6b6457e060405160405180910390a35050565b600060019054906101000a900460ff1680611984575060008054906101000a900460ff16155b6119c3576040517f08c379a00000000000000000000000000000000000000000000000000000000081526004016119ba90613400565b60405180910390fd5b60008060019054906101000a900460ff161590508015611a13576001600060016101000a81548160ff02191690831515021790555060016000806101000a81548160ff0219169083151502179055505b611a1b6120fb565b611a236121d4565b611a2d83836122ad565b8015611a4e5760008060016101000a81548160ff0219169083151502179055505b505050565b600060019054906101000a900460ff1680611a79575060008054906101000a900460ff16155b611ab8576040517f08c379a0000000000000000000000000000000000000000000000000000000008152600401611aaf90613400565b60405180910390fd5b60008060019054906101000a900460ff161590508015611b08576001600060016101000a81548160ff02191690831515021790555060016000806101000a81548160ff0219169083151502179055505b611b106120fb565b611b186123b6565b8015611b395760008060016101000a81548160ff0219169083151502179055505b50565b600060019054906101000a900460ff1680611b62575060008054906101000a900460ff16155b611ba1576040517f08c379a0000000000000000000000000000000000000000000000000000000008152600401611b9890613400565b60405180910390fd5b60008060019054906101000a900460ff161590508015611bf1576001600060016101000a81548160ff02191690831515021790555060016000806101000a81548160ff0219169083151502179055505b611bf961249f565b611c01612578565b8015611c225760008060016101000a81548160ff0219169083151502179055505b50565b611c308484846113aa565b611c3c84848484612651565b611c7b576040517f08c379a0000000000000000000000000000000000000000000000000000000008152600401611c72906132c0565b60405180910390fd5b50505050565b6060604051806060016040528060228152602001613f0b60229139905090565b60606000821415611ce9576040518060400160405280600181526020017f30000000000000000000000000000000000000000000000000000000000000008152509050611e49565b600082905060005b60008214611d1b578080611d04906137d3565b915050600a82611d149190613655565b9150611cf1565b60008167ffffffffffffffff811115611d5d577f4e487b7100000000000000000000000000000000000000000000000000000000600052604160045260246000fd5b6040519080825280601f01601f191660200182016040528015611d8f5781602001600182028036833780820191505090505b5090505b60008514611e4257600182611da89190613686565b9150600a85611db7919061381c565b6030611dc391906135ff565b60f81b818381518110611dff577f4e487b7100000000000000000000000000000000000000000000000000000000600052603260045260246000fd5b60200101907effffffffffffffffffffffffffffffffffffffffffffffffffffffffffffff1916908160001a905350600a85611e3b9190613655565b9450611d93565b8093505050505b919050565b505050565b6000611e817f360894a13ba1a3210667c828492db98dca3e2076cc3735a920a3ca505d382bbc60001b6127e8565b60000160009054906101000a900473ffffffffffffffffffffffffffffffffffffffff16905090565b611eb3816127f2565b611ef2576040517f08c379a0000000000000000000000000000000000000000000000000000000008152600401611ee990613460565b60405180910390fd5b80611f1f7f360894a13ba1a3210667c828492db98dca3e2076cc3735a920a3ca505d382bbc60001b6127e8565b60000160006101000a81548173ffffffffffffffffffffffffffffffffffffffff021916908373ffffffffffffffffffffffffffffffffffffffff16021790555050565b6060611f6e836127f2565b611fad576040517f08c379a0000000000000000000000000000000000000000000000000000000008152600401611fa490613500565b60405180910390fd5b6000808473ffffffffffffffffffffffffffffffffffffffff1684604051611fd591906131e1565b600060405180830381855af49150503d8060008114612010576040519150601f19603f3d011682016040523d82523d6000602084013e612015565b606091505b509150915061203d8282604051806060016040528060278152602001613f2d60279139612805565b9250505092915050565b6000819050919050565b61205a81611eaa565b8073ffffffffffffffffffffffffffffffffffffffff167fbc7cd75a20ee27fd9adebab32041f755214dbc6bffa90cc0225b39da2e5c2d3b60405160405180910390a250565b6120aa838361286c565b6120b76000848484612651565b6120f6576040517f08c379a00000000000000000000000000000000000000000000000000000000081526004016120ed906132c0565b60405180910390fd5b505050565b600060019054906101000a900460ff1680612121575060008054906101000a900460ff16155b612160576040517f08c379a000000000000000000000000000000000000000000000000000000000815260040161215790613400565b60405180910390fd5b60008060019054906101000a900460ff1615905080156121b0576001600060016101000a81548160ff02191690831515021790555060016000806101000a81548160ff0219169083151502179055505b80156121d15760008060016101000a81548160ff0219169083151502179055505b50565b600060019054906101000a900460ff16806121fa575060008054906101000a900460ff16155b612239576040517f08c379a000000000000000000000000000000000000000000000000000000000815260040161223090613400565b60405180910390fd5b60008060019054906101000a900460ff161590508015612289576001600060016101000a81548160ff02191690831515021790555060016000806101000a81548160ff0219169083151502179055505b80156122aa5760008060016101000a81548160ff0219169083151502179055505b50565b600060019054906101000a900460ff16806122d3575060008054906101000a900460ff16155b612312576040517f08c379a000000000000000000000000000000000000000000000000000000000815260040161230990613400565b60405180910390fd5b60008060019054906101000a900460ff161590508015612362576001600060016101000a81548160ff02191690831515021790555060016000806101000a81548160ff0219169083151502179055505b8260659080519060200190612378929190612a3a565b50816066908051906020019061238f929190612a3a565b5080156123b15760008060016101000a81548160ff0219169083151502179055505b505050565b600060019054906101000a900460ff16806123dc575060008054906101000a900460ff16155b61241b576040517f08c379a000000000000000000000000000000000000000000000000000000000815260040161241290613400565b60405180910390fd5b60008060019054906101000a900460ff16159050801561246b576001600060016101000a81548160ff02191690831515021790555060016000806101000a81548160ff0219169083151502179055505b61247b61247661120b565b611898565b801561249c5760008060016101000a81548160ff0219169083151502179055505b50565b600060019054906101000a900460ff16806124c5575060008054906101000a900460ff16155b612504576040517f08c379a00000000000000000000000000000000000000000000000000000000081526004016124fb90613400565b60405180910390fd5b60008060019054906101000a900460ff161590508015612554576001600060016101000a81548160ff02191690831515021790555060016000806101000a81548160ff0219169083151502179055505b80156125755760008060016101000a81548160ff0219169083151502179055505b50565b600060019054906101000a900460ff168061259e575060008054906101000a900460ff16155b6125dd576040517f08c379a00000000000000000000000000000000000000000000000000000000081526004016125d490613400565b60405180910390fd5b60008060019054906101000a900460ff16159050801561262d576001600060016101000a81548160ff02191690831515021790555060016000806101000a81548160ff0219169083151502179055505b801561264e5760008060016101000a81548160ff0219169083151502179055505b50565b60006126728473ffffffffffffffffffffffffffffffffffffffff166127f2565b156127db578373ffffffffffffffffffffffffffffffffffffffff1663150b7a0261269b61120b565b8786866040518563ffffffff1660e01b81526004016126bd9493929190613237565b602060405180830381600087803b1580156126d757600080fd5b505af192505050801561270857506040513d601f19601f820116820180604052508101906127059190612dd2565b60015b61278b573d8060008114612738576040519150601f19603f3d011682016040523d82523d6000602084013e61273d565b606091505b50600081511415612783576040517f08c379a000000000000000000000000000000000000000000000000000000000815260040161277a906132c0565b60405180910390fd5b805181602001fd5b63150b7a0260e01b7bffffffffffffffffffffffffffffffffffffffffffffffffffffffff1916817bffffffffffffffffffffffffffffffffffffffffffffffffffffffff1916149150506127e0565b600190505b949350505050565b6000819050919050565b600080823b905060008111915050919050565b6060831561281557829050612865565b6000835111156128285782518084602001fd5b816040517f08c379a000000000000000000000000000000000000000000000000000000000815260040161285c919061329e565b60405180910390fd5b9392505050565b600073ffffffffffffffffffffffffffffffffffffffff168273ffffffffffffffffffffffffffffffffffffffff1614156128dc576040517f08c379a00000000000000000000000000000000000000000000000000000000081526004016128d390613420565b60405180910390fd5b6128e58161119f565b15612925576040517f08c379a000000000000000000000000000000000000000000000000000000000815260040161291c90613320565b60405180910390fd5b61293160008383611e4e565b6001606860008473ffffffffffffffffffffffffffffffffffffffff1673ffffffffffffffffffffffffffffffffffffffff168152602001908152602001600020600082825461298191906135ff565b92505081905550816067600083815260200190815260200160002060006101000a81548173ffffffffffffffffffffffffffffffffffffffff021916908373ffffffffffffffffffffffffffffffffffffffff160217905550808273ffffffffffffffffffffffffffffffffffffffff16600073ffffffffffffffffffffffffffffffffffffffff167fddf252ad1be2c89b69c2b068fc378daa952ba7f163c4a11628f55a4df523b3ef60405160405180910390a45050565b828054612a4690613770565b90600052602060002090601f016020900481019282612a685760008555612aaf565b82601f10612a8157805160ff1916838001178555612aaf565b82800160010185558215612aaf579182015b82811115612aae578251825591602001919060010190612a93565b5b509050612abc9190612ac0565b5090565b5b80821115612ad9576000816000905550600101612ac1565b5090565b6000612af0612aeb84613580565b61355b565b905082815260208101848484011115612b0857600080fd5b612b1384828561372e565b509392505050565b600081359050612b2a81613eae565b92915050565b600081359050612b3f81613ec5565b92915050565b600081359050612b5481613edc565b92915050565b600081519050612b6981613edc565b92915050565b600082601f830112612b8057600080fd5b8135612b90848260208601612add565b91505092915050565b600081359050612ba881613ef3565b92915050565b600060208284031215612bc057600080fd5b6000612bce84828501612b1b565b91505092915050565b60008060408385031215612bea57600080fd5b6000612bf885828601612b1b565b9250506020612c0985828601612b1b565b9150509250929050565b600080600060608486031215612c2857600080fd5b6000612c3686828701612b1b565b9350506020612c4786828701612b1b565b9250506040612c5886828701612b99565b9150509250925092565b60008060008060808587031215612c7857600080fd5b6000612c8687828801612b1b565b9450506020612c9787828801612b1b565b9350506040612ca887828801612b99565b925050606085013567ffffffffffffffff811115612cc557600080fd5b612cd187828801612b6f565b91505092959194509250565b60008060408385031215612cf057600080fd5b6000612cfe85828601612b1b565b9250506020612d0f85828601612b30565b9150509250929050565b60008060408385031215612d2c57600080fd5b6000612d3a85828601612b1b565b925050602083013567ffffffffffffffff811115612d5757600080fd5b612d6385828601612b6f565b9150509250929050565b60008060408385031215612d8057600080fd5b6000612d8e85828601612b1b565b9250506020612d9f85828601612b99565b9150509250929050565b600060208284031215612dbb57600080fd5b6000612dc984828501612b45565b91505092915050565b600060208284031215612de457600080fd5b6000612df284828501612b5a565b91505092915050565b600060208284031215612e0d57600080fd5b6000612e1b84828501612b99565b91505092915050565b612e2d816136ba565b82525050565b612e3c816136cc565b82525050565b6000612e4d826135b1565b612e5781856135c7565b9350612e6781856020860161373d565b612e7081613909565b840191505092915050565b6000612e86826135b1565b612e9081856135d8565b9350612ea081856020860161373d565b80840191505092915050565b6000612eb7826135bc565b612ec181856135e3565b9350612ed181856020860161373d565b612eda81613909565b840191505092915050565b6000612ef0826135bc565b612efa81856135f4565b9350612f0a81856020860161373d565b80840191505092915050565b6000612f236032836135e3565b9150612f2e8261391a565b604082019050919050565b6000612f46602f836135e3565b9150612f5182613969565b604082019050919050565b6000612f696026836135e3565b9150612f74826139b8565b604082019050919050565b6000612f8c601c836135e3565b9150612f9782613a07565b602082019050919050565b6000612faf6024836135e3565b9150612fba82613a30565b604082019050919050565b6000612fd26019836135e3565b9150612fdd82613a7f565b602082019050919050565b6000612ff5602c836135e3565b915061300082613aa8565b604082019050919050565b60006130186038836135e3565b915061302382613af7565b604082019050919050565b600061303b602a836135e3565b915061304682613b46565b604082019050919050565b600061305e6029836135e3565b915061306982613b95565b604082019050919050565b6000613081602e836135e3565b915061308c82613be4565b604082019050919050565b60006130a46020836135e3565b91506130af82613c33565b602082019050919050565b60006130c7602c836135e3565b91506130d282613c5c565b604082019050919050565b60006130ea602d836135e3565b91506130f582613cab565b604082019050919050565b600061310d6020836135e3565b915061311882613cfa565b602082019050919050565b60006131306029836135e3565b915061313b82613d23565b604082019050919050565b6000613153602f836135e3565b915061315e82613d72565b604082019050919050565b60006131766021836135e3565b915061318182613dc1565b604082019050919050565b60006131996026836135e3565b91506131a482613e10565b604082019050919050565b60006131bc6031836135e3565b91506131c782613e5f565b604082019050919050565b6131db81613724565b82525050565b60006131ed8284612e7b565b915081905092915050565b60006132048285612ee5565b91506132108284612ee5565b91508190509392505050565b60006020820190506132316000830184612e24565b92915050565b600060808201905061324c6000830187612e24565b6132596020830186612e24565b61326660408301856131d2565b81810360608301526132788184612e42565b905095945050505050565b60006020820190506132986000830184612e33565b92915050565b600060208201905081810360008301526132b88184612eac565b905092915050565b600060208201905081810360008301526132d981612f16565b9050919050565b600060208201905081810360008301526132f981612f39565b9050919050565b6000602082019050818103600083015261331981612f5c565b9050919050565b6000602082019050818103600083015261333981612f7f565b9050919050565b6000602082019050818103600083015261335981612fa2565b9050919050565b6000602082019050818103600083015261337981612fc5565b9050919050565b6000602082019050818103600083015261339981612fe8565b9050919050565b600060208201905081810360008301526133b98161300b565b9050919050565b600060208201905081810360008301526133d98161302e565b9050919050565b600060208201905081810360008301526133f981613051565b9050919050565b6000602082019050818103600083015261341981613074565b9050919050565b6000602082019050818103600083015261343981613097565b9050919050565b60006020820190508181036000830152613459816130ba565b9050919050565b60006020820190508181036000830152613479816130dd565b9050919050565b6000602082019050818103600083015261349981613100565b9050919050565b600060208201905081810360008301526134b981613123565b9050919050565b600060208201905081810360008301526134d981613146565b9050919050565b600060208201905081810360008301526134f981613169565b9050919050565b600060208201905081810360008301526135198161318c565b9050919050565b60006020820190508181036000830152613539816131af565b9050919050565b600060208201905061355560008301846131d2565b92915050565b6000613565613576565b905061357182826137a2565b919050565b6000604051905090565b600067ffffffffffffffff82111561359b5761359a6138da565b5b6135a482613909565b9050602081019050919050565b600081519050919050565b600081519050919050565b600082825260208201905092915050565b600081905092915050565b600082825260208201905092915050565b600081905092915050565b600061360a82613724565b915061361583613724565b9250827fffffffffffffffffffffffffffffffffffffffffffffffffffffffffffffffff0382111561364a5761364961384d565b5b828201905092915050565b600061366082613724565b915061366b83613724565b92508261367b5761367a61387c565b5b828204905092915050565b600061369182613724565b915061369c83613724565b9250828210156136af576136ae61384d565b5b828203905092915050565b60006136c582613704565b9050919050565b60008115159050919050565b60007fffffffff0000000000000000000000000000000000000000000000000000000082169050919050565b600073ffffffffffffffffffffffffffffffffffffffff82169050919050565b6000819050919050565b82818337600083830152505050565b60005b8381101561375b578082015181840152602081019050613740565b8381111561376a576000848401525b50505050565b6000600282049050600182168061378857607f821691505b6020821081141561379c5761379b6138ab565b5b50919050565b6137ab82613909565b810181811067ffffffffffffffff821117156137ca576137c96138da565b5b80604052505050565b60006137de82613724565b91507fffffffffffffffffffffffffffffffffffffffffffffffffffffffffffffffff8214156138115761381061384d565b5b600182019050919050565b600061382782613724565b915061383283613724565b9250826138425761384161387c565b5b828206905092915050565b7f4e487b7100000000000000000000000000000000000000000000000000000000600052601160045260246000fd5b7f4e487b7100000000000000000000000000000000000000000000000000000000600052601260045260246000fd5b7f4e487b7100000000000000000000000000000000000000000000000000000000600052602260045260246000fd5b7f4e487b7100000000000000000000000000000000000000000000000000000000600052604160045260246000fd5b6000601f19601f8301169050919050565b7f4552433732313a207472616e7366657220746f206e6f6e20455243373231526560008201527f63656976657220696d706c656d656e7465720000000000000000000000000000602082015250565b7f45524331393637557067726164653a207570677261646520627265616b73206660008201527f7572746865722075706772616465730000000000000000000000000000000000602082015250565b7f4f776e61626c653a206e6577206f776e657220697320746865207a65726f206160008201527f6464726573730000000000000000000000000000000000000000000000000000602082015250565b7f4552433732313a20746f6b656e20616c7265616479206d696e74656400000000600082015250565b7f4552433732313a207472616e7366657220746f20746865207a65726f2061646460008201527f7265737300000000000000000000000000000000000000000000000000000000602082015250565b7f4552433732313a20617070726f766520746f2063616c6c657200000000000000600082015250565b7f4552433732313a206f70657261746f7220717565727920666f72206e6f6e657860008201527f697374656e7420746f6b656e0000000000000000000000000000000000000000602082015250565b7f4552433732313a20617070726f76652063616c6c6572206973206e6f74206f7760008201527f6e6572206e6f7220617070726f76656420666f7220616c6c0000000000000000602082015250565b7f4552433732313a2062616c616e636520717565727920666f7220746865207a6560008201527f726f206164647265737300000000000000000000000000000000000000000000602082015250565b7f4552433732313a206f776e657220717565727920666f72206e6f6e657869737460008201527f656e7420746f6b656e0000000000000000000000000000000000000000000000602082015250565b7f496e697469616c697a61626c653a20636f6e747261637420697320616c72656160008201527f647920696e697469616c697a6564000000000000000000000000000000000000602082015250565b7f4552433732313a206d696e7420746f20746865207a65726f2061646472657373600082015250565b7f4552433732313a20617070726f76656420717565727920666f72206e6f6e657860008201527f697374656e7420746f6b656e0000000000000000000000000000000000000000602082015250565b7f455243313936373a206e657720696d706c656d656e746174696f6e206973206e60008201527f6f74206120636f6e747261637400000000000000000000000000000000000000602082015250565b7f4f776e61626c653a2063616c6c6572206973206e6f7420746865206f776e6572600082015250565b7f4552433732313a207472616e73666572206f6620746f6b656e2074686174206960008201527f73206e6f74206f776e0000000000000000000000000000000000000000000000602082015250565b7f4552433732314d657461646174613a2055524920717565727920666f72206e6f60008201527f6e6578697374656e7420746f6b656e0000000000000000000000000000000000602082015250565b7f4552433732313a20617070726f76616c20746f2063757272656e74206f776e6560008201527f7200000000000000000000000000000000000000000000000000000000000000602082015250565b7f416464726573733a2064656c65676174652063616c6c20746f206e6f6e2d636f60008201527f6e74726163740000000000000000000000000000000000000000000000000000602082015250565b7f4552433732313a207472616e736665722063616c6c6572206973206e6f74206f60008201527f776e6572206e6f7220617070726f766564000000000000000000000000000000602082015250565b613eb7816136ba565b8114613ec257600080fd5b50565b613ece816136cc565b8114613ed957600080fd5b50565b613ee5816136d8565b8114613ef057600080fd5b50565b613efc81613724565b8114613f0757600080fd5b5056fe68747470733a2f2f6170692e726577696c6465722e78797a2f746f6b656e2f76312f416464726573733a206c6f772d6c6576656c2064656c65676174652063616c6c206661696c6564a2646970667358221220ece73dc9ff5a05c8b4d02a95c2aaab3c1bf2f5ae2461c8208d00654ffc88d73564736f6c63430008040033",
  "linkReferences": {},
  "deployedLinkReferences": {}
}