{
  "_format": "hh-sol-artifact-1",
  "contractName": "MockRewilderNFTv2",
  "sourceName": "contracts/mocks/MockRewilderNFTv2.sol",
  "abi": [
    {
      "anonymous": false,
      "inputs": [
        {
          "indexed": false,
          "internalType": "address",
          "name": "previousAdmin",
          "type": "address"
        },
        {
          "indexed": false,
          "internalType": "address",
          "name": "newAdmin",
          "type": "address"
        }
      ],
      "name": "AdminChanged",
      "type": "event"
    },
    {
      "anonymous": false,
      "inputs": [
        {
          "indexed": true,
          "internalType": "address",
          "name": "owner",
          "type": "address"
        },
        {
          "indexed": true,
          "internalType": "address",
          "name": "approved",
          "type": "address"
        },
        {
          "indexed": true,
          "internalType": "uint256",
          "name": "tokenId",
          "type": "uint256"
        }
      ],
      "name": "Approval",
      "type": "event"
    },
    {
      "anonymous": false,
      "inputs": [
        {
          "indexed": true,
          "internalType": "address",
          "name": "owner",
          "type": "address"
        },
        {
          "indexed": true,
          "internalType": "address",
          "name": "operator",
          "type": "address"
        },
        {
          "indexed": false,
          "internalType": "bool",
          "name": "approved",
          "type": "bool"
        }
      ],
      "name": "ApprovalForAll",
      "type": "event"
    },
    {
      "anonymous": false,
      "inputs": [
        {
          "indexed": true,
          "internalType": "address",
          "name": "beacon",
          "type": "address"
        }
      ],
      "name": "BeaconUpgraded",
      "type": "event"
    },
    {
      "anonymous": false,
      "inputs": [
        {
          "indexed": true,
          "internalType": "address",
          "name": "previousOwner",
          "type": "address"
        },
        {
          "indexed": true,
          "internalType": "address",
          "name": "newOwner",
          "type": "address"
        }
      ],
      "name": "OwnershipTransferred",
      "type": "event"
    },
    {
      "anonymous": false,
      "inputs": [
        {
          "indexed": true,
          "internalType": "address",
          "name": "from",
          "type": "address"
        },
        {
          "indexed": true,
          "internalType": "address",
          "name": "to",
          "type": "address"
        },
        {
          "indexed": true,
          "internalType": "uint256",
          "name": "tokenId",
          "type": "uint256"
        }
      ],
      "name": "Transfer",
      "type": "event"
    },
    {
      "anonymous": false,
      "inputs": [
        {
          "indexed": true,
          "internalType": "address",
          "name": "implementation",
          "type": "address"
        }
      ],
      "name": "Upgraded",
      "type": "event"
    },
    {
      "inputs": [
        {
          "internalType": "address",
          "name": "to",
          "type": "address"
        },
        {
          "internalType": "uint256",
          "name": "tokenId",
          "type": "uint256"
        }
      ],
      "name": "approve",
      "outputs": [],
      "stateMutability": "nonpayable",
      "type": "function"
    },
    {
      "inputs": [
        {
          "internalType": "address",
          "name": "owner",
          "type": "address"
        }
      ],
      "name": "balanceOf",
      "outputs": [
        {
          "internalType": "uint256",
          "name": "",
          "type": "uint256"
        }
      ],
      "stateMutability": "view",
      "type": "function"
    },
    {
      "inputs": [
        {
          "internalType": "uint256",
          "name": "tokenId",
          "type": "uint256"
        }
      ],
      "name": "getApproved",
      "outputs": [
        {
          "internalType": "address",
          "name": "",
          "type": "address"
        }
      ],
      "stateMutability": "view",
      "type": "function"
    },
    {
      "inputs": [],
      "name": "initialize",
      "outputs": [],
      "stateMutability": "nonpayable",
      "type": "function"
    },
    {
      "inputs": [
        {
          "internalType": "address",
          "name": "owner",
          "type": "address"
        },
        {
          "internalType": "address",
          "name": "operator",
          "type": "address"
        }
      ],
      "name": "isApprovedForAll",
      "outputs": [
        {
          "internalType": "bool",
          "name": "",
          "type": "bool"
        }
      ],
      "stateMutability": "view",
      "type": "function"
    },
    {
      "inputs": [],
      "name": "name",
      "outputs": [
        {
          "internalType": "string",
          "name": "",
          "type": "string"
        }
      ],
      "stateMutability": "view",
      "type": "function"
    },
    {
      "inputs": [],
      "name": "owner",
      "outputs": [
        {
          "internalType": "address",
          "name": "",
          "type": "address"
        }
      ],
      "stateMutability": "view",
      "type": "function"
    },
    {
      "inputs": [
        {
          "internalType": "uint256",
          "name": "tokenId",
          "type": "uint256"
        }
      ],
      "name": "ownerOf",
      "outputs": [
        {
          "internalType": "address",
          "name": "",
          "type": "address"
        }
      ],
      "stateMutability": "view",
      "type": "function"
    },
    {
      "inputs": [],
      "name": "renounceOwnership",
      "outputs": [],
      "stateMutability": "nonpayable",
      "type": "function"
    },
    {
      "inputs": [
        {
          "internalType": "address",
          "name": "to",
          "type": "address"
        }
      ],
      "name": "safeMint",
      "outputs": [],
      "stateMutability": "nonpayable",
      "type": "function"
    },
    {
      "inputs": [
        {
          "internalType": "address",
          "name": "from",
          "type": "address"
        },
        {
          "internalType": "address",
          "name": "to",
          "type": "address"
        },
        {
          "internalType": "uint256",
          "name": "tokenId",
          "type": "uint256"
        }
      ],
      "name": "safeTransferFrom",
      "outputs": [],
      "stateMutability": "nonpayable",
      "type": "function"
    },
    {
      "inputs": [
        {
          "internalType": "address",
          "name": "from",
          "type": "address"
        },
        {
          "internalType": "address",
          "name": "to",
          "type": "address"
        },
        {
          "internalType": "uint256",
          "name": "tokenId",
          "type": "uint256"
        },
        {
          "internalType": "bytes",
          "name": "_data",
          "type": "bytes"
        }
      ],
      "name": "safeTransferFrom",
      "outputs": [],
      "stateMutability": "nonpayable",
      "type": "function"
    },
    {
      "inputs": [
        {
          "internalType": "address",
          "name": "operator",
          "type": "address"
        },
        {
          "internalType": "bool",
          "name": "approved",
          "type": "bool"
        }
      ],
      "name": "setApprovalForAll",
      "outputs": [],
      "stateMutability": "nonpayable",
      "type": "function"
    },
    {
      "inputs": [
        {
          "internalType": "bytes4",
          "name": "interfaceId",
          "type": "bytes4"
        }
      ],
      "name": "supportsInterface",
      "outputs": [
        {
          "internalType": "bool",
          "name": "",
          "type": "bool"
        }
      ],
      "stateMutability": "view",
      "type": "function"
    },
    {
      "inputs": [],
      "name": "symbol",
      "outputs": [
        {
          "internalType": "string",
          "name": "",
          "type": "string"
        }
      ],
      "stateMutability": "view",
      "type": "function"
    },
    {
      "inputs": [
        {
          "internalType": "uint256",
          "name": "tokenId",
          "type": "uint256"
        }
      ],
      "name": "tokenURI",
      "outputs": [
        {
          "internalType": "string",
          "name": "",
          "type": "string"
        }
      ],
      "stateMutability": "view",
      "type": "function"
    },
    {
      "inputs": [
        {
          "internalType": "address",
          "name": "from",
          "type": "address"
        },
        {
          "internalType": "address",
          "name": "to",
          "type": "address"
        },
        {
          "internalType": "uint256",
          "name": "tokenId",
          "type": "uint256"
        }
      ],
      "name": "transferFrom",
      "outputs": [],
      "stateMutability": "nonpayable",
      "type": "function"
    },
    {
      "inputs": [
        {
          "internalType": "address",
          "name": "newOwner",
          "type": "address"
        }
      ],
      "name": "transferOwnership",
      "outputs": [],
      "stateMutability": "nonpayable",
      "type": "function"
    },
    {
      "inputs": [
        {
          "internalType": "address",
          "name": "newImplementation",
          "type": "address"
        }
      ],
      "name": "upgradeTo",
      "outputs": [],
      "stateMutability": "nonpayable",
      "type": "function"
    },
    {
      "inputs": [
        {
          "internalType": "address",
          "name": "newImplementation",
          "type": "address"
        },
        {
          "internalType": "bytes",
          "name": "data",
          "type": "bytes"
        }
      ],
      "name": "upgradeToAndCall",
      "outputs": [],
      "stateMutability": "payable",
      "type": "function"
    }
  ],
  "bytecode": "0x608060405234801561001057600080fd5b5061405e806100206000396000f3fe60806040526004361061011f5760003560e01c806370a08231116100a0578063a22cb46511610064578063a22cb465146103b0578063b88d4fde146103d9578063c87b56dd14610402578063e985e9c51461043f578063f2fde38b1461047c5761011f565b806370a08231146102ef578063715018a61461032c5780638129fc1c146103435780638da5cb5b1461035a57806395d89b41146103855761011f565b80633659cfe6116100e75780633659cfe61461021b57806340d097c31461024457806342842e0e1461026d5780634f1ef286146102965780636352211e146102b25761011f565b806301ffc9a71461012457806306fdde0314610161578063081812fc1461018c578063095ea7b3146101c957806323b872dd146101f2575b600080fd5b34801561013057600080fd5b5061014b60048036038101906101469190612ea0565b6104a5565b604051610158919061337a565b60405180910390f35b34801561016d57600080fd5b50610176610587565b6040516101839190613395565b60405180910390f35b34801561019857600080fd5b506101b360048036038101906101ae9190612ef2565b610619565b6040516101c09190613313565b60405180910390f35b3480156101d557600080fd5b506101f060048036038101906101eb9190612e64565b61069e565b005b3480156101fe57600080fd5b5061021960048036038101906102149190612d0a565b6107b6565b005b34801561022757600080fd5b50610242600480360381019061023d9190612ca5565b610816565b005b34801561025057600080fd5b5061026b60048036038101906102669190612ca5565b61083d565b005b34801561027957600080fd5b50610294600480360381019061028f9190612d0a565b6108db565b005b6102b060048036038101906102ab9190612e10565b6108fb565b005b3480156102be57600080fd5b506102d960048036038101906102d49190612ef2565b610914565b6040516102e69190613313565b60405180910390f35b3480156102fb57600080fd5b5061031660048036038101906103119190612ca5565b6109c6565b6040516103239190613637565b60405180910390f35b34801561033857600080fd5b50610341610a7e565b005b34801561034f57600080fd5b50610358610b06565b005b34801561036657600080fd5b5061036f610ca1565b60405161037c9190613313565b60405180910390f35b34801561039157600080fd5b5061039a610ccb565b6040516103a79190613395565b60405180910390f35b3480156103bc57600080fd5b506103d760048036038101906103d29190612dd4565b610d5d565b005b3480156103e557600080fd5b5061040060048036038101906103fb9190612d59565b610ede565b005b34801561040e57600080fd5b5061042960048036038101906104249190612ef2565b610f40565b6040516104369190613395565b60405180910390f35b34801561044b57600080fd5b5061046660048036038101906104619190612cce565b610fe7565b604051610473919061337a565b60405180910390f35b34801561048857600080fd5b506104a3600480360381019061049e9190612ca5565b61107b565b005b60007f80ac58cd000000000000000000000000000000000000000000000000000000007bffffffffffffffffffffffffffffffffffffffffffffffffffffffff1916827bffffffffffffffffffffffffffffffffffffffffffffffffffffffff1916148061057057507f5b5e139f000000000000000000000000000000000000000000000000000000007bffffffffffffffffffffffffffffffffffffffffffffffffffffffff1916827bffffffffffffffffffffffffffffffffffffffffffffffffffffffff1916145b80610580575061057f82611173565b5b9050919050565b60606065805461059690613867565b80601f01602080910402602001604051908101604052809291908181526020018280546105c290613867565b801561060f5780601f106105e45761010080835404028352916020019161060f565b820191906000526020600020905b8154815290600101906020018083116105f257829003601f168201915b5050505050905090565b6000610624826111dd565b610663576040517f08c379a000000000000000000000000000000000000000000000000000000000815260040161065a90613537565b60405180910390fd5b6069600083815260200190815260200160002060009054906101000a900473ffffffffffffffffffffffffffffffffffffffff169050919050565b60006106a982610914565b90508073ffffffffffffffffffffffffffffffffffffffff168373ffffffffffffffffffffffffffffffffffffffff16141561071a576040517f08c379a0000000000000000000000000000000000000000000000000000000008152600401610711906135d7565b60405180910390fd5b8073ffffffffffffffffffffffffffffffffffffffff16610739611249565b73ffffffffffffffffffffffffffffffffffffffff161480610768575061076781610762611249565b610fe7565b5b6107a7576040517f08c379a000000000000000000000000000000000000000000000000000000000815260040161079e90613497565b60405180910390fd5b6107b18383611251565b505050565b6107c76107c1611249565b8261130a565b610806576040517f08c379a00000000000000000000000000000000000000000000000000000000081526004016107fd90613617565b60405180910390fd5b6108118383836113e8565b505050565b61081f81611644565b61083a816040518060200160405280600081525060006116c3565b50565b610845611249565b73ffffffffffffffffffffffffffffffffffffffff16610863610ca1565b73ffffffffffffffffffffffffffffffffffffffff16146108b9576040517f08c379a00000000000000000000000000000000000000000000000000000000081526004016108b090613577565b60405180910390fd5b6108cd816108c861012d611894565b6118a2565b6108d861012d6118c0565b50565b6108f683838360405180602001604052806000815250610ede565b505050565b61090482611644565b610910828260016116c3565b5050565b6000806067600084815260200190815260200160002060009054906101000a900473ffffffffffffffffffffffffffffffffffffffff169050600073ffffffffffffffffffffffffffffffffffffffff168173ffffffffffffffffffffffffffffffffffffffff1614156109bd576040517f08c379a00000000000000000000000000000000000000000000000000000000081526004016109b4906134d7565b60405180910390fd5b80915050919050565b60008073ffffffffffffffffffffffffffffffffffffffff168273ffffffffffffffffffffffffffffffffffffffff161415610a37576040517f08c379a0000000000000000000000000000000000000000000000000000000008152600401610a2e906134b7565b60405180910390fd5b606860008373ffffffffffffffffffffffffffffffffffffffff1673ffffffffffffffffffffffffffffffffffffffff168152602001908152602001600020549050919050565b610a86611249565b73ffffffffffffffffffffffffffffffffffffffff16610aa4610ca1565b73ffffffffffffffffffffffffffffffffffffffff1614610afa576040517f08c379a0000000000000000000000000000000000000000000000000000000008152600401610af190613577565b60405180910390fd5b610b0460006118d6565b565b600060019054906101000a900460ff1680610b2c575060008054906101000a900460ff16155b610b6b576040517f08c379a0000000000000000000000000000000000000000000000000000000008152600401610b62906134f7565b60405180910390fd5b60008060019054906101000a900460ff161590508015610bbb576001600060016101000a81548160ff02191690831515021790555060016000806101000a81548160ff0219169083151502179055505b610bf96040518060400160405280600281526020017f686900000000000000000000000000000000000000000000000000000000000081525061199c565b610c6d6040518060400160405280601181526020017f4d6f636b526577696c6465724e465476320000000000000000000000000000008152506040518060400160405280600681526020017f57494c4445520000000000000000000000000000000000000000000000000000815250611a35565b610c75611b2a565b610c7d611c13565b8015610c9e5760008060016101000a81548160ff0219169083151502179055505b50565b6000609760009054906101000a900473ffffffffffffffffffffffffffffffffffffffff16905090565b606060668054610cda90613867565b80601f0160208091040260200160405190810160405280929190818152602001828054610d0690613867565b8015610d535780601f10610d2857610100808354040283529160200191610d53565b820191906000526020600020905b815481529060010190602001808311610d3657829003601f168201915b5050505050905090565b610d65611249565b73ffffffffffffffffffffffffffffffffffffffff168273ffffffffffffffffffffffffffffffffffffffff161415610dd3576040517f08c379a0000000000000000000000000000000000000000000000000000000008152600401610dca90613457565b60405180910390fd5b80606a6000610de0611249565b73ffffffffffffffffffffffffffffffffffffffff1673ffffffffffffffffffffffffffffffffffffffff16815260200190815260200160002060008473ffffffffffffffffffffffffffffffffffffffff1673ffffffffffffffffffffffffffffffffffffffff16815260200190815260200160002060006101000a81548160ff0219169083151502179055508173ffffffffffffffffffffffffffffffffffffffff16610e8d611249565b73ffffffffffffffffffffffffffffffffffffffff167f17307eab39ab6107e8899845ad3d59bd9653f200f220920489ca2b5937696c3183604051610ed2919061337a565b60405180910390a35050565b610eef610ee9611249565b8361130a565b610f2e576040517f08c379a0000000000000000000000000000000000000000000000000000000008152600401610f2590613617565b60405180910390fd5b610f3a84848484611cfc565b50505050565b6060610f4b826111dd565b610f8a576040517f08c379a0000000000000000000000000000000000000000000000000000000008152600401610f81906135b7565b60405180910390fd5b6000610f94611d58565b90506000815111610fb45760405180602001604052806000815250610fdf565b80610fbe84611d6f565b604051602001610fcf9291906132ef565b6040516020818303038152906040525b915050919050565b6000606a60008473ffffffffffffffffffffffffffffffffffffffff1673ffffffffffffffffffffffffffffffffffffffff16815260200190815260200160002060008373ffffffffffffffffffffffffffffffffffffffff1673ffffffffffffffffffffffffffffffffffffffff16815260200190815260200160002060009054906101000a900460ff16905092915050565b611083611249565b73ffffffffffffffffffffffffffffffffffffffff166110a1610ca1565b73ffffffffffffffffffffffffffffffffffffffff16146110f7576040517f08c379a00000000000000000000000000000000000000000000000000000000081526004016110ee90613577565b60405180910390fd5b600073ffffffffffffffffffffffffffffffffffffffff168173ffffffffffffffffffffffffffffffffffffffff161415611167576040517f08c379a000000000000000000000000000000000000000000000000000000000815260040161115e906133f7565b60405180910390fd5b611170816118d6565b50565b60007f01ffc9a7000000000000000000000000000000000000000000000000000000007bffffffffffffffffffffffffffffffffffffffffffffffffffffffff1916827bffffffffffffffffffffffffffffffffffffffffffffffffffffffff1916149050919050565b60008073ffffffffffffffffffffffffffffffffffffffff166067600084815260200190815260200160002060009054906101000a900473ffffffffffffffffffffffffffffffffffffffff1673ffffffffffffffffffffffffffffffffffffffff1614159050919050565b600033905090565b816069600083815260200190815260200160002060006101000a81548173ffffffffffffffffffffffffffffffffffffffff021916908373ffffffffffffffffffffffffffffffffffffffff160217905550808273ffffffffffffffffffffffffffffffffffffffff166112c483610914565b73ffffffffffffffffffffffffffffffffffffffff167f8c5be1e5ebec7d5bd14f71427d1e84f3dd0314c0f7b2291e5b200ac8c7c3b92560405160405180910390a45050565b6000611315826111dd565b611354576040517f08c379a000000000000000000000000000000000000000000000000000000000815260040161134b90613477565b60405180910390fd5b600061135f83610914565b90508073ffffffffffffffffffffffffffffffffffffffff168473ffffffffffffffffffffffffffffffffffffffff1614806113ce57508373ffffffffffffffffffffffffffffffffffffffff166113b684610619565b73ffffffffffffffffffffffffffffffffffffffff16145b806113df57506113de8185610fe7565b5b91505092915050565b8273ffffffffffffffffffffffffffffffffffffffff1661140882610914565b73ffffffffffffffffffffffffffffffffffffffff161461145e576040517f08c379a000000000000000000000000000000000000000000000000000000000815260040161145590613597565b60405180910390fd5b600073ffffffffffffffffffffffffffffffffffffffff168273ffffffffffffffffffffffffffffffffffffffff1614156114ce576040517f08c379a00000000000000000000000000000000000000000000000000000000081526004016114c590613437565b60405180910390fd5b6114d9838383611f1c565b6114e4600082611251565b6001606860008573ffffffffffffffffffffffffffffffffffffffff1673ffffffffffffffffffffffffffffffffffffffff1681526020019081526020016000206000828254611534919061377d565b925050819055506001606860008473ffffffffffffffffffffffffffffffffffffffff1673ffffffffffffffffffffffffffffffffffffffff168152602001908152602001600020600082825461158b91906136f6565b92505081905550816067600083815260200190815260200160002060006101000a81548173ffffffffffffffffffffffffffffffffffffffff021916908373ffffffffffffffffffffffffffffffffffffffff160217905550808273ffffffffffffffffffffffffffffffffffffffff168473ffffffffffffffffffffffffffffffffffffffff167fddf252ad1be2c89b69c2b068fc378daa952ba7f163c4a11628f55a4df523b3ef60405160405180910390a4505050565b61164c611249565b73ffffffffffffffffffffffffffffffffffffffff1661166a610ca1565b73ffffffffffffffffffffffffffffffffffffffff16146116c0576040517f08c379a00000000000000000000000000000000000000000000000000000000081526004016116b790613577565b60405180910390fd5b50565b60006116cd611f21565b90506116d884611f78565b6000835111806116e55750815b156116f6576116f48484612031565b505b60006117247f4910fdfa16fed3260ed0e7147f7cc6da11a60208b5b9406d12a635614ffd914360001b612115565b90508060000160009054906101000a900460ff1661188d5760018160000160006101000a81548160ff0219169083151502179055506117f0858360405160240161176e9190613313565b6040516020818303038152906040527f3659cfe6000000000000000000000000000000000000000000000000000000007bffffffffffffffffffffffffffffffffffffffffffffffffffffffff19166020820180517bffffffffffffffffffffffffffffffffffffffffffffffffffffffff8381831617835250505050612031565b5060008160000160006101000a81548160ff021916908315150217905550611816611f21565b73ffffffffffffffffffffffffffffffffffffffff168273ffffffffffffffffffffffffffffffffffffffff1614611883576040517f08c379a000000000000000000000000000000000000000000000000000000000815260040161187a906133d7565b60405180910390fd5b61188c8561211f565b5b5050505050565b600081600001549050919050565b6118bc82826040518060200160405280600081525061216e565b5050565b6001816000016000828254019250508190555050565b6000609760009054906101000a900473ffffffffffffffffffffffffffffffffffffffff16905081609760006101000a81548173ffffffffffffffffffffffffffffffffffffffff021916908373ffffffffffffffffffffffffffffffffffffffff1602179055508173ffffffffffffffffffffffffffffffffffffffff168173ffffffffffffffffffffffffffffffffffffffff167f8be0079c531659141344cd1fd0a4f28419497f9722a3daafe3b4186f6b6457e060405160405180910390a35050565b611a32816040516024016119b09190613395565b6040516020818303038152906040527f41304fac000000000000000000000000000000000000000000000000000000007bffffffffffffffffffffffffffffffffffffffffffffffffffffffff19166020820180517bffffffffffffffffffffffffffffffffffffffffffffffffffffffff83818316178352505050506121c9565b50565b600060019054906101000a900460ff1680611a5b575060008054906101000a900460ff16155b611a9a576040517f08c379a0000000000000000000000000000000000000000000000000000000008152600401611a91906134f7565b60405180910390fd5b60008060019054906101000a900460ff161590508015611aea576001600060016101000a81548160ff02191690831515021790555060016000806101000a81548160ff0219169083151502179055505b611af26121f2565b611afa6122cb565b611b0483836123a4565b8015611b255760008060016101000a81548160ff0219169083151502179055505b505050565b600060019054906101000a900460ff1680611b50575060008054906101000a900460ff16155b611b8f576040517f08c379a0000000000000000000000000000000000000000000000000000000008152600401611b86906134f7565b60405180910390fd5b60008060019054906101000a900460ff161590508015611bdf576001600060016101000a81548160ff02191690831515021790555060016000806101000a81548160ff0219169083151502179055505b611be76121f2565b611bef6124ad565b8015611c105760008060016101000a81548160ff0219169083151502179055505b50565b600060019054906101000a900460ff1680611c39575060008054906101000a900460ff16155b611c78576040517f08c379a0000000000000000000000000000000000000000000000000000000008152600401611c6f906134f7565b60405180910390fd5b60008060019054906101000a900460ff161590508015611cc8576001600060016101000a81548160ff02191690831515021790555060016000806101000a81548160ff0219169083151502179055505b611cd0612596565b611cd861266f565b8015611cf95760008060016101000a81548160ff0219169083151502179055505b50565b611d078484846113e8565b611d1384848484612748565b611d52576040517f08c379a0000000000000000000000000000000000000000000000000000000008152600401611d49906133b7565b60405180910390fd5b50505050565b606060405180602001604052806000815250905090565b60606000821415611db7576040518060400160405280600181526020017f30000000000000000000000000000000000000000000000000000000000000008152509050611f17565b600082905060005b60008214611de9578080611dd2906138ca565b915050600a82611de2919061374c565b9150611dbf565b60008167ffffffffffffffff811115611e2b577f4e487b7100000000000000000000000000000000000000000000000000000000600052604160045260246000fd5b6040519080825280601f01601f191660200182016040528015611e5d5781602001600182028036833780820191505090505b5090505b60008514611f1057600182611e76919061377d565b9150600a85611e859190613913565b6030611e9191906136f6565b60f81b818381518110611ecd577f4e487b7100000000000000000000000000000000000000000000000000000000600052603260045260246000fd5b60200101907effffffffffffffffffffffffffffffffffffffffffffffffffffffffffffff1916908160001a905350600a85611f09919061374c565b9450611e61565b8093505050505b919050565b505050565b6000611f4f7f360894a13ba1a3210667c828492db98dca3e2076cc3735a920a3ca505d382bbc60001b6128df565b60000160009054906101000a900473ffffffffffffffffffffffffffffffffffffffff16905090565b611f81816128e9565b611fc0576040517f08c379a0000000000000000000000000000000000000000000000000000000008152600401611fb790613557565b60405180910390fd5b80611fed7f360894a13ba1a3210667c828492db98dca3e2076cc3735a920a3ca505d382bbc60001b6128df565b60000160006101000a81548173ffffffffffffffffffffffffffffffffffffffff021916908373ffffffffffffffffffffffffffffffffffffffff16021790555050565b606061203c836128e9565b61207b576040517f08c379a0000000000000000000000000000000000000000000000000000000008152600401612072906135f7565b60405180910390fd5b6000808473ffffffffffffffffffffffffffffffffffffffff16846040516120a391906132d8565b600060405180830381855af49150503d80600081146120de576040519150601f19603f3d011682016040523d82523d6000602084013e6120e3565b606091505b509150915061210b8282604051806060016040528060278152602001614002602791396128fc565b9250505092915050565b6000819050919050565b61212881611f78565b8073ffffffffffffffffffffffffffffffffffffffff167fbc7cd75a20ee27fd9adebab32041f755214dbc6bffa90cc0225b39da2e5c2d3b60405160405180910390a250565b6121788383612963565b6121856000848484612748565b6121c4576040517f08c379a00000000000000000000000000000000000000000000000000000000081526004016121bb906133b7565b60405180910390fd5b505050565b60008151905060006a636f6e736f6c652e6c6f679050602083016000808483855afa5050505050565b600060019054906101000a900460ff1680612218575060008054906101000a900460ff16155b612257576040517f08c379a000000000000000000000000000000000000000000000000000000000815260040161224e906134f7565b60405180910390fd5b60008060019054906101000a900460ff1615905080156122a7576001600060016101000a81548160ff02191690831515021790555060016000806101000a81548160ff0219169083151502179055505b80156122c85760008060016101000a81548160ff0219169083151502179055505b50565b600060019054906101000a900460ff16806122f1575060008054906101000a900460ff16155b612330576040517f08c379a0000000000000000000000000000000000000000000000000000000008152600401612327906134f7565b60405180910390fd5b60008060019054906101000a900460ff161590508015612380576001600060016101000a81548160ff02191690831515021790555060016000806101000a81548160ff0219169083151502179055505b80156123a15760008060016101000a81548160ff0219169083151502179055505b50565b600060019054906101000a900460ff16806123ca575060008054906101000a900460ff16155b612409576040517f08c379a0000000000000000000000000000000000000000000000000000000008152600401612400906134f7565b60405180910390fd5b60008060019054906101000a900460ff161590508015612459576001600060016101000a81548160ff02191690831515021790555060016000806101000a81548160ff0219169083151502179055505b826065908051906020019061246f929190612b31565b508160669080519060200190612486929190612b31565b5080156124a85760008060016101000a81548160ff0219169083151502179055505b505050565b600060019054906101000a900460ff16806124d3575060008054906101000a900460ff16155b612512576040517f08c379a0000000000000000000000000000000000000000000000000000000008152600401612509906134f7565b60405180910390fd5b60008060019054906101000a900460ff161590508015612562576001600060016101000a81548160ff02191690831515021790555060016000806101000a81548160ff0219169083151502179055505b61257261256d611249565b6118d6565b80156125935760008060016101000a81548160ff0219169083151502179055505b50565b600060019054906101000a900460ff16806125bc575060008054906101000a900460ff16155b6125fb576040517f08c379a00000000000000000000000000000000000000000000000000000000081526004016125f2906134f7565b60405180910390fd5b60008060019054906101000a900460ff16159050801561264b576001600060016101000a81548160ff02191690831515021790555060016000806101000a81548160ff0219169083151502179055505b801561266c5760008060016101000a81548160ff0219169083151502179055505b50565b600060019054906101000a900460ff1680612695575060008054906101000a900460ff16155b6126d4576040517f08c379a00000000000000000000000000000000000000000000000000000000081526004016126cb906134f7565b60405180910390fd5b60008060019054906101000a900460ff161590508015612724576001600060016101000a81548160ff02191690831515021790555060016000806101000a81548160ff0219169083151502179055505b80156127455760008060016101000a81548160ff0219169083151502179055505b50565b60006127698473ffffffffffffffffffffffffffffffffffffffff166128e9565b156128d2578373ffffffffffffffffffffffffffffffffffffffff1663150b7a02612792611249565b8786866040518563ffffffff1660e01b81526004016127b4949392919061332e565b602060405180830381600087803b1580156127ce57600080fd5b505af19250505080156127ff57506040513d601f19601f820116820180604052508101906127fc9190612ec9565b60015b612882573d806000811461282f576040519150601f19603f3d011682016040523d82523d6000602084013e612834565b606091505b5060008151141561287a576040517f08c379a0000000000000000000000000000000000000000000000000000000008152600401612871906133b7565b60405180910390fd5b805181602001fd5b63150b7a0260e01b7bffffffffffffffffffffffffffffffffffffffffffffffffffffffff1916817bffffffffffffffffffffffffffffffffffffffffffffffffffffffff1916149150506128d7565b600190505b949350505050565b6000819050919050565b600080823b905060008111915050919050565b6060831561290c5782905061295c565b60008351111561291f5782518084602001fd5b816040517f08c379a00000000000000000000000000000000000000000000000000000000081526004016129539190613395565b60405180910390fd5b9392505050565b600073ffffffffffffffffffffffffffffffffffffffff168273ffffffffffffffffffffffffffffffffffffffff1614156129d3576040517f08c379a00000000000000000000000000000000000000000000000000000000081526004016129ca90613517565b60405180910390fd5b6129dc816111dd565b15612a1c576040517f08c379a0000000000000000000000000000000000000000000000000000000008152600401612a1390613417565b60405180910390fd5b612a2860008383611f1c565b6001606860008473ffffffffffffffffffffffffffffffffffffffff1673ffffffffffffffffffffffffffffffffffffffff1681526020019081526020016000206000828254612a7891906136f6565b92505081905550816067600083815260200190815260200160002060006101000a81548173ffffffffffffffffffffffffffffffffffffffff021916908373ffffffffffffffffffffffffffffffffffffffff160217905550808273ffffffffffffffffffffffffffffffffffffffff16600073ffffffffffffffffffffffffffffffffffffffff167fddf252ad1be2c89b69c2b068fc378daa952ba7f163c4a11628f55a4df523b3ef60405160405180910390a45050565b828054612b3d90613867565b90600052602060002090601f016020900481019282612b5f5760008555612ba6565b82601f10612b7857805160ff1916838001178555612ba6565b82800160010185558215612ba6579182015b82811115612ba5578251825591602001919060010190612b8a565b5b509050612bb39190612bb7565b5090565b5b80821115612bd0576000816000905550600101612bb8565b5090565b6000612be7612be284613677565b613652565b905082815260208101848484011115612bff57600080fd5b612c0a848285613825565b509392505050565b600081359050612c2181613fa5565b92915050565b600081359050612c3681613fbc565b92915050565b600081359050612c4b81613fd3565b92915050565b600081519050612c6081613fd3565b92915050565b600082601f830112612c7757600080fd5b8135612c87848260208601612bd4565b91505092915050565b600081359050612c9f81613fea565b92915050565b600060208284031215612cb757600080fd5b6000612cc584828501612c12565b91505092915050565b60008060408385031215612ce157600080fd5b6000612cef85828601612c12565b9250506020612d0085828601612c12565b9150509250929050565b600080600060608486031215612d1f57600080fd5b6000612d2d86828701612c12565b9350506020612d3e86828701612c12565b9250506040612d4f86828701612c90565b9150509250925092565b60008060008060808587031215612d6f57600080fd5b6000612d7d87828801612c12565b9450506020612d8e87828801612c12565b9350506040612d9f87828801612c90565b925050606085013567ffffffffffffffff811115612dbc57600080fd5b612dc887828801612c66565b91505092959194509250565b60008060408385031215612de757600080fd5b6000612df585828601612c12565b9250506020612e0685828601612c27565b9150509250929050565b60008060408385031215612e2357600080fd5b6000612e3185828601612c12565b925050602083013567ffffffffffffffff811115612e4e57600080fd5b612e5a85828601612c66565b9150509250929050565b60008060408385031215612e7757600080fd5b6000612e8585828601612c12565b9250506020612e9685828601612c90565b9150509250929050565b600060208284031215612eb257600080fd5b6000612ec084828501612c3c565b91505092915050565b600060208284031215612edb57600080fd5b6000612ee984828501612c51565b91505092915050565b600060208284031215612f0457600080fd5b6000612f1284828501612c90565b91505092915050565b612f24816137b1565b82525050565b612f33816137c3565b82525050565b6000612f44826136a8565b612f4e81856136be565b9350612f5e818560208601613834565b612f6781613a00565b840191505092915050565b6000612f7d826136a8565b612f8781856136cf565b9350612f97818560208601613834565b80840191505092915050565b6000612fae826136b3565b612fb881856136da565b9350612fc8818560208601613834565b612fd181613a00565b840191505092915050565b6000612fe7826136b3565b612ff181856136eb565b9350613001818560208601613834565b80840191505092915050565b600061301a6032836136da565b915061302582613a11565b604082019050919050565b600061303d602f836136da565b915061304882613a60565b604082019050919050565b60006130606026836136da565b915061306b82613aaf565b604082019050919050565b6000613083601c836136da565b915061308e82613afe565b602082019050919050565b60006130a66024836136da565b91506130b182613b27565b604082019050919050565b60006130c96019836136da565b91506130d482613b76565b602082019050919050565b60006130ec602c836136da565b91506130f782613b9f565b604082019050919050565b600061310f6038836136da565b915061311a82613bee565b604082019050919050565b6000613132602a836136da565b915061313d82613c3d565b604082019050919050565b60006131556029836136da565b915061316082613c8c565b604082019050919050565b6000613178602e836136da565b915061318382613cdb565b604082019050919050565b600061319b6020836136da565b91506131a682613d2a565b602082019050919050565b60006131be602c836136da565b91506131c982613d53565b604082019050919050565b60006131e1602d836136da565b91506131ec82613da2565b604082019050919050565b60006132046020836136da565b915061320f82613df1565b602082019050919050565b60006132276029836136da565b915061323282613e1a565b604082019050919050565b600061324a602f836136da565b915061325582613e69565b604082019050919050565b600061326d6021836136da565b915061327882613eb8565b604082019050919050565b60006132906026836136da565b915061329b82613f07565b604082019050919050565b60006132b36031836136da565b91506132be82613f56565b604082019050919050565b6132d28161381b565b82525050565b60006132e48284612f72565b915081905092915050565b60006132fb8285612fdc565b91506133078284612fdc565b91508190509392505050565b60006020820190506133286000830184612f1b565b92915050565b60006080820190506133436000830187612f1b565b6133506020830186612f1b565b61335d60408301856132c9565b818103606083015261336f8184612f39565b905095945050505050565b600060208201905061338f6000830184612f2a565b92915050565b600060208201905081810360008301526133af8184612fa3565b905092915050565b600060208201905081810360008301526133d08161300d565b9050919050565b600060208201905081810360008301526133f081613030565b9050919050565b6000602082019050818103600083015261341081613053565b9050919050565b6000602082019050818103600083015261343081613076565b9050919050565b6000602082019050818103600083015261345081613099565b9050919050565b60006020820190508181036000830152613470816130bc565b9050919050565b60006020820190508181036000830152613490816130df565b9050919050565b600060208201905081810360008301526134b081613102565b9050919050565b600060208201905081810360008301526134d081613125565b9050919050565b600060208201905081810360008301526134f081613148565b9050919050565b600060208201905081810360008301526135108161316b565b9050919050565b600060208201905081810360008301526135308161318e565b9050919050565b60006020820190508181036000830152613550816131b1565b9050919050565b60006020820190508181036000830152613570816131d4565b9050919050565b60006020820190508181036000830152613590816131f7565b9050919050565b600060208201905081810360008301526135b08161321a565b9050919050565b600060208201905081810360008301526135d08161323d565b9050919050565b600060208201905081810360008301526135f081613260565b9050919050565b6000602082019050818103600083015261361081613283565b9050919050565b60006020820190508181036000830152613630816132a6565b9050919050565b600060208201905061364c60008301846132c9565b92915050565b600061365c61366d565b90506136688282613899565b919050565b6000604051905090565b600067ffffffffffffffff821115613692576136916139d1565b5b61369b82613a00565b9050602081019050919050565b600081519050919050565b600081519050919050565b600082825260208201905092915050565b600081905092915050565b600082825260208201905092915050565b600081905092915050565b60006137018261381b565b915061370c8361381b565b9250827fffffffffffffffffffffffffffffffffffffffffffffffffffffffffffffffff0382111561374157613740613944565b5b828201905092915050565b60006137578261381b565b91506137628361381b565b92508261377257613771613973565b5b828204905092915050565b60006137888261381b565b91506137938361381b565b9250828210156137a6576137a5613944565b5b828203905092915050565b60006137bc826137fb565b9050919050565b60008115159050919050565b60007fffffffff0000000000000000000000000000000000000000000000000000000082169050919050565b600073ffffffffffffffffffffffffffffffffffffffff82169050919050565b6000819050919050565b82818337600083830152505050565b60005b83811015613852578082015181840152602081019050613837565b83811115613861576000848401525b50505050565b6000600282049050600182168061387f57607f821691505b60208210811415613893576138926139a2565b5b50919050565b6138a282613a00565b810181811067ffffffffffffffff821117156138c1576138c06139d1565b5b80604052505050565b60006138d58261381b565b91507fffffffffffffffffffffffffffffffffffffffffffffffffffffffffffffffff82141561390857613907613944565b5b600182019050919050565b600061391e8261381b565b91506139298361381b565b92508261393957613938613973565b5b828206905092915050565b7f4e487b7100000000000000000000000000000000000000000000000000000000600052601160045260246000fd5b7f4e487b7100000000000000000000000000000000000000000000000000000000600052601260045260246000fd5b7f4e487b7100000000000000000000000000000000000000000000000000000000600052602260045260246000fd5b7f4e487b7100000000000000000000000000000000000000000000000000000000600052604160045260246000fd5b6000601f19601f8301169050919050565b7f4552433732313a207472616e7366657220746f206e6f6e20455243373231526560008201527f63656976657220696d706c656d656e7465720000000000000000000000000000602082015250565b7f45524331393637557067726164653a207570677261646520627265616b73206660008201527f7572746865722075706772616465730000000000000000000000000000000000602082015250565b7f4f776e61626c653a206e6577206f776e657220697320746865207a65726f206160008201527f6464726573730000000000000000000000000000000000000000000000000000602082015250565b7f4552433732313a20746f6b656e20616c7265616479206d696e74656400000000600082015250565b7f4552433732313a207472616e7366657220746f20746865207a65726f2061646460008201527f7265737300000000000000000000000000000000000000000000000000000000602082015250565b7f4552433732313a20617070726f766520746f2063616c6c657200000000000000600082015250565b7f4552433732313a206f70657261746f7220717565727920666f72206e6f6e657860008201527f697374656e7420746f6b656e0000000000000000000000000000000000000000602082015250565b7f4552433732313a20617070726f76652063616c6c6572206973206e6f74206f7760008201527f6e6572206e6f7220617070726f76656420666f7220616c6c0000000000000000602082015250565b7f4552433732313a2062616c616e636520717565727920666f7220746865207a6560008201527f726f206164647265737300000000000000000000000000000000000000000000602082015250565b7f4552433732313a206f776e657220717565727920666f72206e6f6e657869737460008201527f656e7420746f6b656e0000000000000000000000000000000000000000000000602082015250565b7f496e697469616c697a61626c653a20636f6e747261637420697320616c72656160008201527f647920696e697469616c697a6564000000000000000000000000000000000000602082015250565b7f4552433732313a206d696e7420746f20746865207a65726f2061646472657373600082015250565b7f4552433732313a20617070726f76656420717565727920666f72206e6f6e657860008201527f697374656e7420746f6b656e0000000000000000000000000000000000000000602082015250565b7f455243313936373a206e657720696d706c656d656e746174696f6e206973206e60008201527f6f74206120636f6e747261637400000000000000000000000000000000000000602082015250565b7f4f776e61626c653a2063616c6c6572206973206e6f7420746865206f776e6572600082015250565b7f4552433732313a207472616e73666572206f6620746f6b656e2074686174206960008201527f73206e6f74206f776e0000000000000000000000000000000000000000000000602082015250565b7f4552433732314d657461646174613a2055524920717565727920666f72206e6f60008201527f6e6578697374656e7420746f6b656e0000000000000000000000000000000000602082015250565b7f4552433732313a20617070726f76616c20746f2063757272656e74206f776e6560008201527f7200000000000000000000000000000000000000000000000000000000000000602082015250565b7f416464726573733a2064656c65676174652063616c6c20746f206e6f6e2d636f60008201527f6e74726163740000000000000000000000000000000000000000000000000000602082015250565b7f4552433732313a207472616e736665722063616c6c6572206973206e6f74206f60008201527f776e6572206e6f7220617070726f766564000000000000000000000000000000602082015250565b613fae816137b1565b8114613fb957600080fd5b50565b613fc5816137c3565b8114613fd057600080fd5b50565b613fdc816137cf565b8114613fe757600080fd5b50565b613ff38161381b565b8114613ffe57600080fd5b5056fe416464726573733a206c6f772d6c6576656c2064656c65676174652063616c6c206661696c6564a2646970667358221220f8634a2f505bf72343a07d6b5242d1b0abad8d0eaabfe7cbb0bb65f65c366a6064736f6c63430008040033",
  "linkReferences": {},
  "deployedLinkReferences": {}
}